:1000000041C066C15AC059C058C057C056C055C03B
:1000100054C053C052C051C050C04FC04EC04DC05C
:100020004CC04BC04AC004030904200363006F00A6
:100030006400650061006E0064006C006900660089
:1000400065002E0063006F006D001603550053001D
:1000500042006500780061006D0070006C00650072
:1000600012011001FF000008C016DC0500010102AA
:1000700000010902120001010080320904000000A1
:100080000000000011241FBECFE5D4E0DEBFCDBFCD
:1000900010E0A0E6B0E0E6ECF5E002C005900D92BD
:1000A000A236B107D9F710E0A2E6B0E001C01D9278
:1000B000AD39B107E1F769D284C2A2CF85B78260BA
:1000C00085BF8BB780648BBF08951F93CF93DF9359
:1000D00090918300935097FD87C02091800080917C
:1000E0007F008D3209F07EC0983009F07BC0CCE0F3
:1000F000D0E0C21BD109C957DF4F83EC8093730056
:100100008AE580936000109262008881807621F0F9
:10011000CE010BD2282F5DC09A8110927C0089817C
:10012000882321F410927D0022E04DC0853019F41F
:100130009093840047C08630B1F58B81813019F4EB
:1001400080E690E004C0823041F482E790E0909332
:1001500082008093810022E122C08330F9F48A81F9
:10016000882341F486E290E090938200809381009E
:1001700024E015C0813041F48AE290E0909382003F
:100180008093810020E20BC0823041F48AE490E049
:10019000909382008093810026E101C020E080E4FA
:1001A0008093620016C0883021F421E086E890E058
:1001B0000CC0893019F49093860004C08A3011F481
:1001C00021E001C020E08CE790E0909382008093D2
:1001D00081008F81882321F48E81821708F4282FD3
:1001E00020936100109283008091600084FF49C0D9
:1001F000809161008F3F09F444C0182F893008F0C6
:1002000018E0811B809361008091730098E8892732
:1002100080937300112341F120918100309182007D
:100220008091620086FF0DC0A4E7B0E080E090E01E
:10023000F901E80FF91FE491ED9301961817C1F742
:1002400008C0912FD901E4E7F0E08D91819391509E
:10025000E1F71150812F90E01F5F0196820F931FED
:10026000909382008093810084E790E0612F2CD0EE
:10027000612F6C5F6C3019F08FEF80936100609399
:10028000600094E180B3847131F49150D9F71092F9
:10029000840010927E00DF91CF911F910895A82FC6
:1002A000B92F80E090E041E050EA609530E009C06D
:1002B0002D9182279795879510F084279527305E9A
:1002C000C8F36F5FA8F30895EADF8D939D930895B7
:1002D000CF93CFB7CF93C395849BE9F7849B09C095
:1002E000849B07C0849B05C0849B03C0849B01C082
:1002F000A1C0DF93C0918000DD27C957DF4F849BE9
:1003000002C0DF91EBCF2F930F931F9300B32FEF1A
:1003100004FB20F94F933F9310B34FEF012704FBE9
:1003200021F93BE031C04E7F012F10B3216028C07E
:10033000102F4D7F2260000000B329C04B7F246046
:10034000012F000010B32BC010B3477F28602AC0D4
:100350004F7E00B320612CC04F7D10B320622FC0B0
:100360004F7B00B3206432C0422700B349934FEF64
:100370000000102714FB20F910B31471C9F1297F74
:1003800091F2012704FB21F900B3237F89F2315058
:1003900058F1102714FB22F910B3277E79F20127B8
:1003A00004FB23F92F7C81F200B3102714FB24F9FE
:1003B0002F7971F200C010B3012704FB25F92F73C8
:1003C00059F200C000B3102714FB26F9223040F286
:1003D00000C010B3012704FB27F9243028F64F771B
:1003E000206810B30000F9CF10E41ABF002717C02F
:1003F0003B503195C31BD04010E41ABF0881033C29
:10040000E9F00B34D9F020917E001981110F1213FD
:10041000EDCF093641F10D3211F0013E39F700936D
:1004200085003F914F911F910F912F91DF91CAB796
:10043000C6FD51CFCF91CFBFCF91189520918500A8
:10044000222379F310918300112311F5343012F136
:100450003093830020937F00109180003BE0311B9C
:100460003093800017C00091830001308CF40AE5BE
:100470003091600034FD10C000936000C3E7D0E00D
:100480000FC02795A8F45150A9F4220F0000F9CF0E
:100490004AE503C042ED01C0432FC4E1D0E032E0A1
:1004A00011B31461949A11BB02B320E414E15F9379
:1004B000012756E002BB279520F4515021F4220F6A
:1004C000F9CF012756E000003B5A02BBD0F2279536
:1004D00028F4515029F4220F0000F9CF012756E0EB
:1004E000279502BB20F4515021F4220FF9CF0127A8
:1004F00056E02991332302BB21F60B7E1091840034
:10050000110FC651D04002BB11F010937E0010E4D1
:100510001ABF006111B31B7E402F4B7E5F9100C05C
:1005200000C002BB11BB42BB7CCFFC01818181308A
:1005300029F0813030F0823011F405C0C09A80E09B
:100540000895C098FCCF23E630E0C09B0EC08FE634
:10055000809363008EE68093640010926500309370
:1005600082002093810082E008958FE680936300EB
:1005700086E6809364008093650010926600309355
:1005800082002093810083E0089581E087BB2EE004
:1005900088E190E00FB6F894A89581BD0FBE21BD0B
:1005A0008DDD8C9A20E040E757E1A895CA010197BC
:1005B000F1F72F5F2A3FC9F78C987894A89585DDCD
:0605C000FDCFF894FFCF0F
:0205C6005AFFDA
:00000001FF
